:100000000C9434000C9451000C9451000C94510049
:100010000C9451000C9451000C9451000C949205D6
:100020000C9451000C9451000C9451000C9451000C
:100030000C9451000C9451000C9451000C945100FC
:100040000C9451000C9451000C9451000C945100EC
:100050000C945100D508D808DB08DE08E108E40854
:10006000E708EA08ED08F00811241FBECFE5D8E044
:10007000DEBFCDBF10E0A0E6B0E0E2E2F2E102C0F8
:1000800005900D92AA3FB107D9F727E0AAEFB0E09B
:1000900001C01D92A333B207E1F70E94E1010C9465
:1000A0000F090C940000BA9A0895C29A0895C29854
:1000B00008958A988B9888988998929A939A909A9A
:1000C000909A089580B361E00E94CB0191E0811184
:1000D00090E0892F089580B360E00E94CB0191E009
:1000E000811190E0892F089580B362E00E94CB01D6
:1000F00091E0811190E0892F089580B363E00E9420
:10010000CB0191E0811190E0892F089584B380663E
:1001100084BB85B38F6185BB85B3806685BB08953D
:1001200015B31066EE24E394F12C0F2EF9E35F2E45
:10013000F02D0F2EF8E39F2EF02D0F2EF6E36F2EED
:10014000F02D0F2EF4E37F2EF02D0F2EF2E38F2EE5
:10015000F02D0F2EF0E3AF2EF02DC5E0D0E00F2EE6
:10016000F7E3BF2EF02D0F2EF5E3CF2EF02D0F2E3F
:10017000F3E3DF2EF02D01E3C7010C2E02C0880F40
:10018000991F0A94E2F78095812385BB85B3807619
:10019000803219F08034B9F16CC0989909C00E947E
:1001A0005500989BFECF0E945700A092FA0020C0F5
:1001B000999909C00E945500999BFECF0E94570053
:1001C0008092FA0015C09A9909C00E9455009A9B26
:1001D000FECF0E9457007092FA000AC09B9908C097
:1001E0000E9455009B9BFECF0E9457006092FA0030
:1001F0009C993FC00E9455009C9BFECF0E945700D7
:100200009092FA0036C0989909C00E945500989BB8
:10021000FECF0E9457000093FA002BC0999909C0A5
:100220000E945500999BFECF0E945700D092FA0081
:1002300020C09A9909C00E9455009A9BFECF0E9447
:100240005700C092FA0015C09B9909C00E94550042
:100250009B9BFECF0E945700B092FA000AC09C9967
:1002600008C00E9455009C9BFECF0E9457005092F0
:10027000FA002196C730D10509F07ECF6ECFC19A22
:100280008FEC97E00197F1F700C00000C1988FEC68
:1002900097E00197F1F700C000000895CF93C82FB1
:1002A000882314F0C79801C0C79AC6FD02C0C6983B
:1002B00001C0C69AC5FD02C0C59801C0C59AC4FD5B
:1002C00002C0C49801C0C49A0E943F01C3FD02C08D
:1002D000C79801C0C79AC2FD02C0C69801C0C69A9D
:1002E000C1FD02C0C59801C0C59AC0FD02C0C49836
:1002F00001C0C49A0E943F01CF910895C0980E9406
:100300004E01089587B3836F87BB82E00E947E0110
:1003100088E20E947E0181E00E947E018CE00E94C2
:100320007E0186E00E947E0180E80E947E018FE3CC
:100330009CE90197F1F700C000000895C09A0E945F
:100340004E010895CF93DF93EC018881882331F02B
:1003500021960E949E0189918111FBCFDF91CF915F
:100360000895CF93DF93EC01411107C0603168F429
:1003700080E8860F0E947E0108C0413031F4603170
:1003800020F480EC860F0E947E01CE010E94A20123
:10039000DF91CF91089521E030E0062E02C0220FB8
:1003A000331F0A94E2F790E02823392302C03595E1
:1003B00027956A95E2F781E02130310509F080E068
:1003C00008950E9486000E9482010E9471030E948B
:1003D00059000E94530040E064E082E690E00E94F1
:1003E000B10141E060E08AE690E00E94B101A12CF9
:1003F000B12CC12CD12CE12CF12C00E020E030E01C
:1004000040E550E06BE770E080E990E00E949505E0
:1004100020E030E040E550E062E870E08FEB98E0EB
:100420000E9495050E949A06FFCF089581E00E94E0
:100430007E0140E066E08CE890E00E94B10141E07E
:1004400062E08FE890E00E94B101969895989498A8
:10045000089581E00E947E0140E066E08CE890E033
:100460000E94B10141E062E08BE990E00E94B1019D
:10047000089581E00E947E0140E064E087EA90E018
:100480000E94B101089581E00E947E0140E066E093
:100490008CE890E00E94B10141E063E08EEA90E0D8
:1004A0000E94B1010E948E039698959894980895A1
:1004B00081E00E947E0140E065E082E690E00E94DB
:1004C000B10141E060E08AE690E00E94B101089548
:1004D00081E00E947E0140E066E08CE890E00E94AE
:1004E000B10141E063E088EB90E00E94B1010E941D
:1004F000740081110CC00E947D00811108C00E940F
:100500006200811104C00E946B00882381F10E9467
:10051000740081110CC00E947D00813041F40E9462
:100520006200811104C00E946B00882301F10E94C7
:100530007400813061F40E947D00811108C00E9426
:100540006200811104C00E946B00882381F00E9428
:100550007400813091F40E947D00813071F40E941A
:10056000620081110AC00E946B00811106C00E94C6
:10057000A30396989598949808950E947400811109
:1005800012C00E947D0081110EC00E946200811184
:100590000AC00E946B00813031F40E947903969862
:1005A0009598949808950E94740081110CC00E943F
:1005B0007D00813041F40E946200813021F40E946C
:1005C0006B00882301F10E947400813061F40E9465
:1005D0007D00811108C00E946200813021F40E94D8
:1005E0006B00882381F00E947400813089F40E949E
:1005F0007D00813069F40E946200813049F40E94DC
:100600006B00811105C00E948E039698959894986E
:100610000895089581E00E947E0140E066E08CE844
:1006200090E00E94B10141E062E082EC90E00E9423
:10063000B1010E947400811108C00E946200811102
:1006400004C00E946B00882361F00E947400813016
:1006500071F40E94620081110AC00E946B00811136
:1006600006C00E94A30396989598949808950E94B6
:10067000740081110EC00E94620081110AC00E94A4
:100680006B00813031F40E94790396989598949884
:1006900008950E947400813069F40E9462008130E4
:1006A00049F40E946B00811105C00E948E03969848
:1006B000959894980895089581E00E947E0140E005
:1006C00066E08CE890E00E94B10141E063E08FECCD
:1006D00090E00E94B1010E947903969895989498B1
:1006E000089581B3806781BB0895959A0895949A7F
:1006F00008950E94620081110CC081E00E947E0179
:1007000008C040E064E08BED90E00E94B1010E94DF
:1007100077030E9462008823A1F308950E946B0072
:1007200081110CC081E00E947E0108C040E064E0BD
:1007300083EE90E00E94B1010E9475030E946B005D
:100740008823A1F3089581E00E947E0107C040E064
:1007500063E08BEE90E00E94B101949A0E946200E7
:100760008823A9F30895CF93DF93EC010E94C50677
:100770002091FB003091FC00C9018C0F9D1F8C3D26
:1007800045E0940758F42817390758F4E901C35095
:10079000DF4F9093FC008093FB0005C0C0E0D0E0E9
:1007A00002C0C0E0D0E00E948F07CE01DF91CF9160
:1007B00008950895FC010396928381832FEF3FEF04
:1007C000348323839683858390878783108208955B
:1007D000FC01118610860895CF93DF93FC01DB01A5
:1007E00021813281E9018A819B8113969C938E93AA
:1007F00012978181928115969C938E9314978A818A
:100800009B81EC017D836C83E9017B836A83728326
:1008100061831996FC93EE93189780818F5F808394
:10082000DF91CF910895FC01A281B38184819581EC
:1008300015969C938E931497A481B58182819381A0
:1008400013969C938E931297A085B18511968D91E6
:100850009C911297E817F90731F4848195811296DB
:100860009C938E931197118610868C9181508C9356
:10087000089531E1FC013083319722E220833197E2
:10088000A3E3A083319760833197708331971082FF
:10089000319760E8608331971082319762E060831E
:1008A000319763E06083319764E06083319765E05E
:1008B0006083319766E06083319767E060833197AA
:1008C00068E06083319769E06083319760E160831D
:1008D00031973083319732E13083319733E1308380
:1008E000319734E13083319735E13083319736E108
:1008F0003083319737E13083319738E13083319756
:1009000039E13083319730E23083319731E23083FF
:1009100031972083319723E22083319740833197A9
:100920005083319726E22083319727E22083319745
:1009300028E22083319729E22083319720E3208326
:10094000319721E32083869708958CE790E09BBD43
:100950008ABD8FB58C7F8FBD8BE08EBD89B78061DE
:1009600089BFA0913107B0913207CD91CDBFDD9104
:10097000DEBFFF91EF91DF91CF91BF91AF919F913A
:100980008F917F916F915F914F913F912F911F9127
:100990000F91FF90EF90DF90CF90BF90AF909F901E
:1009A0008F907F906F905F904F903F902F901F900F
:1009B0000F900FBE0F90089581E008950F920FB62B
:1009C000F8940F921F9211242F923F924F925F92B0
:1009D0006F927F928F929F92AF92BF92CF92DF924F
:1009E000EF92FF920F931F932F933F934F935F9339
:1009F0006F937F938F939F93AF93BF93CF93DF9327
:100A0000EF93FF93A0913107B09132070DB60D928D
:100A10000EB60D920E945308A0913107B091320793
:100A2000CD91CDBFDD91DEBFFF91EF91DF91CF91F1
:100A3000BF91AF919F918F917F916F915F914F91F6
:100A40003F912F911F910F91FF90EF90DF90CF90EA
:100A5000BF90AF909F908F907F906F905F904F90DE
:100A60003F902F901F900F900FBE0F9008950F9200
:100A70000FB6F8940F921F9211242F923F924F922B
:100A80005F926F927F928F929F92AF92BF92CF921E
:100A9000DF92EF92FF920F931F932F933F934F9309
:100AA0005F936F937F938F939F93AF93BF93CF93F6
:100AB000DF93EF93FF93A0913107B09132070DB60A
:100AC0000D920EB60D920E94CB060E945308A09183
:100AD0003107B0913207CD91CDBFDD91DEBFFF91DF
:100AE000EF91DF91CF91BF91AF919F918F917F91C6
:100AF0006F915F914F913F912F911F910F91FF90B7
:100B0000EF90DF90CF90BF90AF909F908F907F90AD
:100B10006F905F904F903F902F901F900F900FBE5F
:100B20000F9008950E94370518954F925F926F922B
:100B30007F928F929F92AF92BF92CF92DF92EF926D
:100B4000FF920F931F93CF93DF935C014B013A0108
:100B5000290181E290E00E94B303EC01892B09F4A2
:100B6000D7C0C114D10409F0CFC0C3010E94B303A0
:100B7000988F8F8B009721F4CE010E94D903C8C0B3
:100B8000A30165EA70E00E94F90893012150310940
:100B90008F89988D3C01620E731E48E050E0B401CD
:100BA000CE0149960E94000918A2102F043008F0C7
:100BB00013E01E8B6E0182E0C80ED11CC6010E949C
:100BC000E803CE010C960E94E803D987C88784E029
:100BD00090E0811B91099D878C87DB8BCA8BA201DA
:100BE000B501C3010E94390499838883E114F1049B
:100BF00019F0F701D183C0830FB6F8940F9280915A
:100C0000E3068F5F8093E30680913107909132076E
:100C1000892BA9F5D0933207C09331078091E30661
:100C20008130E1F58DE097E00E94DA0386E197E0FC
:100C30000E94DA038FE197E00E94DA0388E297E0EE
:100C40000E94DA0384E097E00E94DA038BEF96E0DB
:100C50000E94DA038EEE96E00E94DA0385EE96E0BB
:100C60000E94DA0384E097E09093FA068093F906F5
:100C70008BEF96E09093F8068093F7060FC0809173
:100C8000DE0681110BC0E0913107F09132078689B1
:100C9000081720F0D0933207C09331078E899091C6
:100CA000E006981710F48093E0069091D9069F5FB4
:100CB0009093D9069091DF06981710F48093DF0681
:100CC00090E09C01220F331F220F331F220F331F8E
:100CD000820F931FB601835F984F0E94EC030F9021
:100CE0000FBE8091DE06882359F0E0913107F09124
:100CF00032078689801730F40E94DE0481E009C043
:100D000081E007C081E005C0D88ECF8AC60138CF08
:100D10008FEFDF91CF911F910F91FF90EF90DF90B8
:100D2000CF90BF90AF909F908F907F906F905F908B
:100D30004F900895AF92BF92CF92DF92EF92FF92C1
:100D40000F93A12CB12CC12CD12CE12CF12C00E063
:100D500020E030E045E550E065EF70E085E198E0A7
:100D60000E949505813049F4F8948093DE06109234
:100D7000E2061092E1060E94A5040F91FF90EF9009
:100D8000DF90CF90BF90AF9008958091DD068F5F88
:100D90008093DD0608950F931F93CF93DF93809187
:100DA000DD068111B2C08091E1069091E2060196C4
:100DB0009093E2068093E1068091E1069091E2062D
:100DC000892B99F58091F9069091FA062091F70602
:100DD0003091F8063093FA062093F9069093F806BE
:100DE0008093F7068091DA068F5F8093DA06E091B0
:100DF000F906F091FA068081811107C08FEF9FEF0D
:100E0000909361008093600010C0E091F906F0912A
:100E1000FA060580F681E02D0680F781E02D8281BB
:100E2000938190936100809360002091E10630915E
:100E3000E20680916000909161002817390708F45C
:100E400069C0E091F906F091FA068081882399F053
:100E5000E091F906F091FA060580F681E02DC68151
:100E6000D7818A819B812091E1063091E206281783
:100E70003907F8F419C08FEF9FEF909361008093CA
:100E8000600048C0E091F906F091FA060580F6810D
:100E9000E02DC681D7818A819B812091E106309126
:100EA000E2062817390728F49093610080936000C8
:100EB00031C08E010E5F1F4FC8010E9413048C8940
:100EC0009D89892B21F0CE010C960E9413048E89F6
:100ED0009091DF06981710F48093DF0690E09C0154
:100EE000220F331F220F331F220F331F820F931F36
:100EF000B801835F984F0E94EC03E091F906F091EE
:100F0000FA0680818111BECFB6CF8091DC068F5F5B
:100F10008093DC06DF91CF911F910F910895CF92BE
:100F2000DF92EF92FF920F931F93CF93DF930FB651
:100F3000F8940F928091DD0681508093DD068091B8
:100F4000DD06811164C08091E306811132C062C068
:100F5000D7011596ED91FC911697C681D781CE01E8
:100F60000C960E9413048E010E5F1F4FC8010E9451
:100F700013048E899091DF06981710F48093DF0692
:100F800090E09C01220F331F220F331F220F331FCB
:100F9000820F931FB801835F984F0E94EC03E0918A
:100FA0003107F09132079E898689981758F0DC2C1A
:100FB00009C0D12C0F2EFEEEEF2EF6E0FF2EF02D05
:100FC000CC24C394F70180818111C2CF8091DC06CB
:100FD000882381F08091DC06882399F00E94CB065B
:100FE0008091DC0681508093DC068091DC068111C3
:100FF000F5CF07C0F1E0DF1621F08091DB068130EC
:1010000041F41092DB060E94DE0481E003C080E020
:1010100001C080E00F900FBEDF91CF911F910F9123
:10102000FF90EF90DF90CF9008950F2EF5EEEF2E0A
:10103000F6E0FF2EF02DCDE0D7E08091E406882386
:1010400051F10E94C506D7011C910E948F07112300
:1010500011F10FB6F8940F92D7011596ED91FC910E
:10106000169706811781C80102960E941304809189
:10107000E30681508093E3068091E40681508093DB
:10108000E4060F900FBEF8018789908D0E94D90366
:10109000C8010E94D9038881823010F00E94DE04CA
:1010A0000E941502CACF8091DD06811113C0809184
:1010B000DF0690E0FC01EE0FFF1FEE0FFF1FEE0FAB
:1010C000FF1F8E0F9F1FFC01E35FF84F8081882375
:1010D00029F01BC081E08093DB0608958091DF0634
:1010E00081508093DF068091DF0690E0FC01EE0FD7
:1010F000FF1FEE0FFF1FEE0FFF1F8E0F9F1FFC0144
:10110000E35FF84F8081882349F38091DF0690E008
:101110009C01220F331F220F331F220F331F280F72
:10112000391FD901A35FB84F1196ED91FC91129729
:101130000280F381E02D1296FC93EE931197205FCD
:10114000384FE217F30729F422813381FD013283FE
:101150002183FC01EE0FFF1FEE0FFF1FEE0FFF1F9D
:101160008E0F9F1FFC01E35FF84F0180F281E02D9D
:1011700086819781909332078093310708952FEFEE
:1011800082E597E0215080409040E1F700C00000E8
:10119000E091FA008E2F90E0FC01F097EA30F10523
:1011A00070F7E65DFF4F0C94F3080E941602E7CF3C
:1011B0000E942902E4CF0E943902E1CF0E9443023B
:1011C000DECF0E945802DBCF0E946802D8CF0E9477
:1011D0000903D5CF0E940A03D2CF0E945B03CFCF71
:1011E0000E945C03CCCFEE0FFF1F0590F491E02D21
:1011F0000994DC0101C06D9341505040E0F708951F
:10120000FB01DC014150504048F001900D9200205C
:10121000C9F701C01D9241505040E0F70895F8947D
:02122000FFCFFE
:10122200FFFF57654C636F6D6500506C65617365B8
:1012320053656C6563744D4F4445004B657950614D
:1012420064004D61696E5F7461736B004F4E004DB7
:10125200616E75616C204D6F64650057696E7465CF
:1012620072204D6F6465005468616E6B73004F505D
:10127200454E204D4F4445004155544F4D41544930
:1012820043004F4E4520574159204D4F444500439E
:101292004C4F534544204D6F646500436C6F736936
:1012A2006E67004F50656E696E6700444546204385
:0A12B2004C4F53450049444C4500E1
:00000001FF
